{
  "contractName": "SimpleStorage",
  "abi": [
    {
      "inputs": [],
      "stateMutability": "nonpayable",
      "type": "constructor"
    },
    {
      "inputs": [
        {
          "internalType": "string",
          "name": "",
          "type": "string"
        }
      ],
      "name": "addressInUse",
      "outputs": [
        {
          "internalType": "bool",
          "name": "",
          "type": "bool"
        }
      ],
      "stateMutability": "view",
      "type": "function",
      "constant": true
    },
    {
      "inputs": [
        {
          "internalType": "uint256",
          "name": "",
          "type": "uint256"
        }
      ],
      "name": "arr",
      "outputs": [
        {
          "internalType": "string",
          "name": "",
          "type": "string"
        }
      ],
      "stateMutability": "view",
      "type": "function",
      "constant": true
    },
    {
      "inputs": [
        {
          "internalType": "string",
          "name": "",
          "type": "string"
        }
      ],
      "name": "voterID",
      "outputs": [
        {
          "internalType": "bool",
          "name": "",
          "type": "bool"
        }
      ],
      "stateMutability": "view",
      "type": "function",
      "constant": true
    },
    {
      "inputs": [
        {
          "internalType": "string",
          "name": "id",
          "type": "string"
        },
        {
          "internalType": "string",
          "name": "add",
          "type": "string"
        }
      ],
      "name": "registerNewVoter",
      "outputs": [
        {
          "internalType": "string",
          "name": "",
          "type": "string"
        }
      ],
      "stateMutability": "nonpayable",
      "type": "function"
    },
    {
      "inputs": [],
      "name": "getAdd",
      "outputs": [
        {
          "internalType": "string",
          "name": "",
          "type": "string"
        }
      ],
      "stateMutability": "view",
      "type": "function",
      "constant": true
    },
    {
      "inputs": [
        {
          "internalType": "string",
          "name": "add",
          "type": "string"
        }
      ],
      "name": "isAddressInUse",
      "outputs": [
        {
          "internalType": "bool",
          "name": "",
          "type": "bool"
        }
      ],
      "stateMutability": "view",
      "type": "function",
      "constant": true
    }
  ],
  "bytecode": "0x608060405234801561001057600080fd5b50610772806100206000396000f3fe608060405234801561001057600080fd5b50600436106100625760003560e01c80630edf875514610067578063206602f2146100aa57806371e5ee5f146100bd578063d14d42ba146100dd578063d3ce8fcd146100e5578063f33b66fa146100f8575b600080fd5b610095610075366004610530565b805160208183018101805160028252928201919093012091525460ff1681565b60405190151581526020015b60405180910390f35b6100956100b836600461056d565b610126565b6100d06100cb3660046105df565b610164565b6040516100a19190610628565b6100d0610210565b6100d06100f336600461065b565b6102be565b610095610106366004610530565b805160208183018101805160018252928201919093012091525460ff1681565b60006002838360405161013a9291906106bf565b9081526040519081900360200190205460ff1661015857600061015b565b60015b90505b92915050565b6003818154811061017457600080fd5b90600052602060002001600091509050805461018f906106cf565b80601f01602080910402602001604051908101604052809291908181526020018280546101bb906106cf565b80156102085780601f106101dd57610100808354040283529160200191610208565b820191906000526020600020905b8154815290600101906020018083116101eb57829003601f168201915b505050505081565b606060036000815481106102265761022661070a565b90600052602060002001805461023b906106cf565b80601f0160208091040260200160405190810160405280929190818152602001828054610267906106cf565b80156102b45780601f10610289576101008083540402835291602001916102b4565b820191906000526020600020905b81548152906001019060200180831161029757829003601f168201915b5050505050905090565b60606001836040516102d09190610720565b9081526040519081900360200190205460ff166103ba5760038054600181018255600091909152835161032a917fc2575a0e9e593c00f959f8c92f12db2869c3395a3b0502d05e2516446f71f85b019060208601906103f4565b506001808460405161033c9190610720565b908152604051908190036020018120805492151560ff199093169290921790915560019060029061036e908590610720565b908152602001604051809103902060006101000a81548160ff021916908315150217905550604051806040016040528060078152602001667375636365737360c81b815250905061015e565b5060408051808201909152601881527f566f74657220616c726561647920726567697374657265640000000000000000602082015261015e565b828054610400906106cf565b90600052602060002090601f0160209004810192826104225760008555610468565b82601f1061043b57805160ff1916838001178555610468565b82800160010185558215610468579182015b8281111561046857825182559160200191906001019061044d565b50610474929150610478565b5090565b5b808211156104745760008155600101610479565b634e487b7160e01b600052604160045260246000fd5b600082601f8301126104b457600080fd5b813567ffffffffffffffff808211156104cf576104cf61048d565b604051601f8301601f19908116603f011681019082821181831017156104f7576104f761048d565b8160405283815286602085880101111561051057600080fd5b836020870160208301376000602085830101528094505050505092915050565b60006020828403121561054257600080fd5b813567ffffffffffffffff81111561055957600080fd5b610565848285016104a3565b949350505050565b6000806020838503121561058057600080fd5b823567ffffffffffffffff8082111561059857600080fd5b818501915085601f8301126105ac57600080fd5b8135818111156105bb57600080fd5b8660208285010111156105cd57600080fd5b60209290920196919550909350505050565b6000602082840312156105f157600080fd5b5035919050565b60005b838110156106135781810151838201526020016105fb565b83811115610622576000848401525b50505050565b60208152600082518060208401526106478160408501602087016105f8565b601f01601f19169190910160400192915050565b6000806040838503121561066e57600080fd5b823567ffffffffffffffff8082111561068657600080fd5b610692868387016104a3565b935060208501359150808211156106a857600080fd5b506106b5858286016104a3565b9150509250929050565b8183823760009101908152919050565b600181811c908216806106e357607f821691505b6020821081141561070457634e487b7160e01b600052602260045260246000fd5b50919050565b634e487b7160e01b600052603260045260246000fd5b600082516107328184602087016105f8565b919091019291505056fea2646970667358221220806284ea5b2fab58da6c81692c648b87b1a58af9f31554b92d7bb25f077e4fed64736f6c634300080b0033",
  "immutableReferences": {},
  "source": "// SPDX-License-Identifier: MIT\npragma solidity 0.8.11;\n\ncontract SimpleStorage {\n    uint256 storedData;\n    mapping(string => bool) public voterID;\n    mapping(string => bool) public addressInUse;\n    string[] public arr;\n\n    constructor() public {}\n\n    function registerNewVoter(string memory id, string memory add)\n        public\n        returns (string memory)\n    {\n        if (!voterID[id]) {\n            arr.push(id);\n            voterID[id] = true;\n            addressInUse[add] = true;\n            return (\"success\");\n        } else {\n            return (\"Voter already registered\");\n        }\n    }\n\n    function getAdd() public view returns (string memory) {\n        return arr[0];\n    }\n\n    function isAddressInUse(string calldata add) public view returns (bool) {\n        return addressInUse[add] ? true : false;\n    }\n}\n",
  "sourcePath": "/home/sudonims/Documents/DAPP Voting/contracts/SimpleStorage.sol",
  "compiler": {
    "name": "solc",
    "version": "0.8.11+commit.d7f03943.Emscripten.clang"
  },
  "schemaVersion": "3.4.4",
  "updatedAt": "2022-01-06T18:02:03.979Z",
  "networkType": "ethereum",
  "devdoc": {
    "kind": "dev",
    "methods": {},
    "version": 1
  },
  "userdoc": {
    "kind": "user",
    "methods": {},
    "version": 1
  }
}