{
  "contractName": "SimpleStorage",
  "abi": [
    {
      "inputs": [],
      "stateMutability": "nonpayable",
      "type": "constructor"
    },
    {
      "inputs": [
        {
          "internalType": "string",
          "name": "id",
          "type": "string"
        },
        {
          "internalType": "string",
          "name": "add",
          "type": "string"
        }
      ],
      "name": "registerNewVoter",
      "outputs": [
        {
          "internalType": "string",
          "name": "ret",
          "type": "string"
        }
      ],
      "stateMutability": "nonpayable",
      "type": "function"
    },
    {
      "inputs": [
        {
          "internalType": "string",
          "name": "add",
          "type": "string"
        }
      ],
      "name": "isAddressInUse",
      "outputs": [
        {
          "internalType": "bool",
          "name": "",
          "type": "bool"
        }
      ],
      "stateMutability": "view",
      "type": "function",
      "constant": true
    }
  ],
  "bytecode": "0x608060405234801561001057600080fd5b506103f1806100206000396000f3fe608060405234801561001057600080fd5b50600436106100365760003560e01c8063206602f21461003b578063d3ce8fcd14610063575b600080fd5b61004e6100493660046101b3565b610083565b60405190151581526020015b60405180910390f35b6100766100713660046102c8565b6100c1565b60405161005a919061035c565b60006002838360405161009792919061038f565b9081526040519081900360200190205460ff166100b55760006100b8565b60015b90505b92915050565b60606001836040516100d3919061039f565b9081526040519081900360200190205460ff1661017957600180846040516100fb919061039f565b908152604051908190036020018120805492151560ff199093169290921790915560019060029061012d90859061039f565b908152602001604051809103902060006101000a81548160ff021916908315150217905550604051806040016040528060078152602001665375636365737360c81b81525090506100bb565b5060408051808201909152601881527f566f74657220616c72656164792072656769737465726564000000000000000060208201526100bb565b600080602083850312156101c657600080fd5b823567ffffffffffffffff808211156101de57600080fd5b818501915085601f8301126101f257600080fd5b81358181111561020157600080fd5b86602082850101111561021357600080fd5b60209290920196919550909350505050565b634e487b7160e01b600052604160045260246000fd5b600082601f83011261024c57600080fd5b813567ffffffffffffffff8082111561026757610267610225565b604051601f8301601f19908116603f0116810190828211818310171561028f5761028f610225565b816040528381528660208588010111156102a857600080fd5b836020870160208301376000602085830101528094505050505092915050565b600080604083850312156102db57600080fd5b823567ffffffffffffffff808211156102f357600080fd5b6102ff8683870161023b565b9350602085013591508082111561031557600080fd5b506103228582860161023b565b9150509250929050565b60005b8381101561034757818101518382015260200161032f565b83811115610356576000848401525b50505050565b602081526000825180602084015261037b81604085016020870161032c565b601f01601f19169190910160400192915050565b8183823760009101908152919050565b600082516103b181846020870161032c565b919091019291505056fea26469706673582212200336c8dbe9f7e73d8d32a4e41dd8ada432e8f860a013a0de70a6c74dd582e33564736f6c634300080b0033",
  "immutableReferences": {},
  "source": "// SPDX-License-Identifier: MIT\npragma solidity 0.8.11;\n\ncontract SimpleStorage {\n  uint storedData;\n  mapping (string=>bool) voterID;\n  mapping (string=>bool) addressInUse;\n\n  constructor() public {}\n  function registerNewVoter(string memory id, string memory add) public returns (string memory ret) {\n    \n    if(!voterID[id]) {\n      voterID[id] = true;\n      addressInUse[add] = true;\n      return \"Success\";\n    } else {\n      return \"Voter already registered\";\n    }\n  }\n\n  function isAddressInUse(string calldata add) public view returns (bool) {\n    return addressInUse[add] ? true : false;\n  }\n}\n",
  "sourcePath": "/home/sudonims/Documents/DAPP Voting/contracts/SimpleStorage.sol",
  "compiler": {
    "name": "solc",
    "version": "0.8.11+commit.d7f03943.Emscripten.clang"
  },
  "schemaVersion": "3.4.4",
  "updatedAt": "2022-01-01T18:17:56.967Z",
  "networkType": "ethereum",
  "devdoc": {
    "kind": "dev",
    "methods": {},
    "version": 1
  },
  "userdoc": {
    "kind": "user",
    "methods": {},
    "version": 1
  }
}