{
  "contractName": "VoteToken",
  "abi": [
    {
      "inputs": [],
      "stateMutability": "nonpayable",
      "type": "constructor"
    },
    {
      "anonymous": false,
      "inputs": [
        {
          "indexed": true,
          "internalType": "address",
          "name": "owner",
          "type": "address"
        },
        {
          "indexed": true,
          "internalType": "address",
          "name": "spender",
          "type": "address"
        },
        {
          "indexed": false,
          "internalType": "uint256",
          "name": "value",
          "type": "uint256"
        }
      ],
      "name": "Approval",
      "type": "event"
    },
    {
      "anonymous": false,
      "inputs": [
        {
          "indexed": true,
          "internalType": "address",
          "name": "from",
          "type": "address"
        },
        {
          "indexed": true,
          "internalType": "address",
          "name": "to",
          "type": "address"
        },
        {
          "indexed": false,
          "internalType": "uint256",
          "name": "value",
          "type": "uint256"
        }
      ],
      "name": "Transfer",
      "type": "event"
    },
    {
      "inputs": [],
      "name": "decimals",
      "outputs": [
        {
          "internalType": "uint8",
          "name": "",
          "type": "uint8"
        }
      ],
      "stateMutability": "view",
      "type": "function",
      "constant": true
    },
    {
      "inputs": [],
      "name": "name",
      "outputs": [
        {
          "internalType": "string",
          "name": "",
          "type": "string"
        }
      ],
      "stateMutability": "view",
      "type": "function",
      "constant": true
    },
    {
      "inputs": [],
      "name": "symbol",
      "outputs": [
        {
          "internalType": "string",
          "name": "",
          "type": "string"
        }
      ],
      "stateMutability": "view",
      "type": "function",
      "constant": true
    },
    {
      "inputs": [],
      "name": "totalSupply",
      "outputs": [
        {
          "internalType": "uint256",
          "name": "",
          "type": "uint256"
        }
      ],
      "stateMutability": "view",
      "type": "function",
      "constant": true
    },
    {
      "inputs": [
        {
          "internalType": "address",
          "name": "tokenOwner",
          "type": "address"
        }
      ],
      "name": "balanceOf",
      "outputs": [
        {
          "internalType": "uint256",
          "name": "",
          "type": "uint256"
        }
      ],
      "stateMutability": "view",
      "type": "function",
      "constant": true
    },
    {
      "inputs": [
        {
          "internalType": "address",
          "name": "receiver",
          "type": "address"
        },
        {
          "internalType": "uint256",
          "name": "amount",
          "type": "uint256"
        }
      ],
      "name": "transfer",
      "outputs": [
        {
          "internalType": "bool",
          "name": "",
          "type": "bool"
        }
      ],
      "stateMutability": "nonpayable",
      "type": "function"
    }
  ],
  "bytecode": "0x608060405234801561001057600080fd5b5064174876e80060038190553360008181526001602052604081209290925581546001600160a01b0319161790556103458061004d6000396000f3fe608060405234801561001057600080fd5b50600436106100625760003560e01c806306fdde031461006757806318160ddd146100a5578063313ce567146100b757806370a08231146100d157806395d89b41146100fa578063a9059cbb1461011d575b600080fd5b61008f604051806040016040528060098152602001682b37ba32aa37b5b2b760b91b81525081565b60405161009c919061021e565b60405180910390f35b6003545b60405190815260200161009c565b6100bf600081565b60405160ff909116815260200161009c565b6100a96100df36600461028f565b6001600160a01b031660009081526001602052604090205490565b61008f604051806040016040528060048152602001632b2a25a760e11b81525081565b61013061012b3660046102aa565b610140565b604051901515815260200161009c565b600080546001600160a01b031681526001602052604081205482111561016557600080fd5b600080546001600160a01b031681526001602052604090205461018890836101fb565b600080546001600160a01b039081168252600160205260408083209390935585811680835283832086905591549251919216907fddf252ad1be2c89b69c2b068fc378daa952ba7f163c4a11628f55a4df523b3ef906101ea9086815260200190565b60405180910390a350600192915050565b60008282111561020d5761020d6102d4565b61021782846102ea565b9392505050565b600060208083528351808285015260005b8181101561024b5785810183015185820160400152820161022f565b8181111561025d576000604083870101525b50601f01601f1916929092016040019392505050565b80356001600160a01b038116811461028a57600080fd5b919050565b6000602082840312156102a157600080fd5b61021782610273565b600080604083850312156102bd57600080fd5b6102c683610273565b946020939093013593505050565b634e487b7160e01b600052600160045260246000fd5b60008282101561030a57634e487b7160e01b600052601160045260246000fd5b50039056fea2646970667358221220837d98c4342b3bfada4cae527e91a00cad0bb037a6cdb4af8501c9d9ee70407664736f6c634300080b0033",
  "immutableReferences": {},
  "source": "// SPDX-License-Identifier: MIT\npragma solidity 0.8.11;\n\ninterface IERC20 {\n    function totalSupply() external view returns (uint256);\n\n    function balanceOf(address acc) external view returns (uint256);\n\n    // function allowance(address owner, address spender)\n    //     external\n    //     view\n    //     returns (uint256);\n\n    function transfer(address receiver, uint256 amount) external returns (bool);\n\n    // function approve(address spender, uint256 amount) external returns (bool);\n\n    // function transferFrom(\n    //     address sender,\n    //     address recipient,\n    //     uint256 amount\n    // ) external returns (bool);\n\n    event Transfer(address indexed from, address indexed to, uint256 value);\n    event Approval(\n        address indexed owner,\n        address indexed spender,\n        uint256 value\n    );\n}\n\nlibrary SafeMath {\n    function sub(uint256 a, uint256 b) internal pure returns (uint256) {\n        assert(b <= a);\n        return a - b;\n    }\n\n    function add(uint256 a, uint256 b) internal pure returns (uint256) {\n        uint256 c = a + b;\n        assert(c >= a);\n        return c;\n    }\n}\n\ncontract VoteToken is IERC20 {\n    using SafeMath for uint256;\n\n    string public constant name = \"VoteToken\";\n    string public constant symbol = \"VTKN\";\n    uint8 public constant decimals = 0;\n    address owner;\n\n    mapping(address => uint256) balances;\n    mapping(address => mapping(address => uint256)) allowed;\n\n    uint256 totalSupply_;\n\n    constructor() {\n        totalSupply_ = 100000000000;\n        balances[msg.sender] = totalSupply_;\n        owner = msg.sender;\n    }\n\n    function totalSupply() public view override returns (uint256) {\n        return totalSupply_;\n    }\n\n    function balanceOf(address tokenOwner)\n        public\n        view\n        override\n        returns (uint256)\n    {\n        return balances[tokenOwner];\n    }\n\n    function transfer(address receiver, uint256 amount)\n        public\n        override\n        returns (bool)\n    {\n        require(amount <= balances[owner]);\n        balances[owner] = balances[owner].sub(amount);\n        balances[receiver] = amount;\n        emit Transfer(owner, receiver, amount);\n        return true;\n    }\n\n    // function approve(address delegate, uint256 numTokens)\n    //     public\n    //     override\n    //     returns (bool)\n    // {\n    //     allowed[msg.sender][delegate] = numTokens;\n    //     emit Approval(msg.sender, delegate, numTokens);\n    //     return true;\n    // }\n\n    // function allowance(address owner, address delegate)\n    //     public\n    //     view\n    //     override\n    //     returns (uint256)\n    // {\n    //     return allowed[owner][delegate];\n    // }\n\n    // function transferFrom(\n    //     address owner,\n    //     address buyer,\n    //     uint256 numTokens\n    // ) public override returns (bool) {\n    //     require(numTokens <= balances[owner]);\n    //     require(numTokens <= allowed[owner][msg.sender]);\n\n    //     balances[owner] = balances[owner].sub(numTokens);\n    //     allowed[owner][msg.sender] = allowed[owner][msg.sender].sub(numTokens);\n    //     balances[buyer] = balances[buyer].add(numTokens);\n    //     emit Transfer(owner, buyer, numTokens);\n    //     return true;\n    // }\n}\n",
  "sourcePath": "/home/sudonims/Documents/DAPP Voting/contracts/VoteToken.sol",
  "compiler": {
    "name": "solc",
    "version": "0.8.11+commit.d7f03943.Emscripten.clang"
  },
  "schemaVersion": "3.4.4",
  "updatedAt": "2022-01-28T18:27:53.154Z",
  "networkType": "ethereum",
  "devdoc": {
    "kind": "dev",
    "methods": {},
    "version": 1
  },
  "userdoc": {
    "kind": "user",
    "methods": {},
    "version": 1
  }
}