{
  "contractName": "Vote",
  "abi": [
    {
      "inputs": [],
      "stateMutability": "nonpayable",
      "type": "constructor"
    },
    {
      "inputs": [
        {
          "internalType": "uint256",
          "name": "",
          "type": "uint256"
        }
      ],
      "name": "candidateList",
      "outputs": [
        {
          "internalType": "string",
          "name": "",
          "type": "string"
        }
      ],
      "stateMutability": "view",
      "type": "function",
      "constant": true
    },
    {
      "inputs": [
        {
          "internalType": "string",
          "name": "candidate",
          "type": "string"
        }
      ],
      "name": "castVote",
      "outputs": [
        {
          "internalType": "string",
          "name": "",
          "type": "string"
        }
      ],
      "stateMutability": "nonpayable",
      "type": "function"
    },
    {
      "inputs": [
        {
          "internalType": "string",
          "name": "candidate",
          "type": "string"
        }
      ],
      "name": "getCount",
      "outputs": [
        {
          "internalType": "uint256",
          "name": "",
          "type": "uint256"
        }
      ],
      "stateMutability": "view",
      "type": "function",
      "constant": true
    },
    {
      "inputs": [],
      "name": "getCandidates",
      "outputs": [
        {
          "internalType": "string[]",
          "name": "",
          "type": "string[]"
        }
      ],
      "stateMutability": "view",
      "type": "function",
      "constant": true
    }
  ],
  "bytecode": "0x60806040523480156200001157600080fd5b50604080516080810182526001818301818152604160f81b606084015282528251808401909352808352602160f91b6020848101919091528201929092526200005d91906002620000ac565b50600280546001600160a01b03199081167399c53cd5bce3e74965ca0624a03812984629f68d17909155600380549091167304b2b6ff0b94d2b68dc4fda10863299e0cb4856d17905562000252565b828054828255906000526020600020908101928215620000fe579160200282015b82811115620000fe5782518051620000ed91849160209091019062000110565b5091602001919060010190620000cd565b506200010c9291506200019b565b5090565b8280546200011e9062000215565b90600052602060002090601f0160209004810192826200014257600085556200018d565b82601f106200015d57805160ff19168380011785556200018d565b828001600101855582156200018d579182015b828111156200018d57825182559160200191906001019062000170565b506200010c929150620001bc565b808211156200010c576000620001b28282620001d3565b506001016200019b565b5b808211156200010c5760008155600101620001bd565b508054620001e19062000215565b6000825580601f10620001f2575050565b601f016020900490600052602060002090810190620002129190620001bc565b50565b600181811c908216806200022a57607f821691505b602082108114156200024c57634e487b7160e01b600052602260045260246000fd5b50919050565b610cc780620002626000396000f3fe608060405234801561001057600080fd5b506004361061004c5760003560e01c806306a49fce146100515780639cc2d9931461006f578063b13c744b1461008f578063f001a551146100a2575b600080fd5b6100596100c3565b60405161006691906108ca565b60405180910390f35b61008261007d36600461092c565b61019c565b604051610066919061099e565b61008261009d3660046109b8565b610520565b6100b56100b036600461092c565b6105cc565b604051908152602001610066565b60606001805480602002602001604051908101604052809291908181526020016000905b82821015610193578382906000526020600020018054610106906109d1565b80601f0160208091040260200160405190810160405280929190818152602001828054610132906109d1565b801561017f5780601f106101545761010080835404028352916020019161017f565b820191906000526020600020905b81548152906001019060200180831161016257829003601f168201915b5050505050815260200190600101906100e7565b50505050905090565b60025460609033906001600160a01b031663206602f26101bb836105fe565b6040518263ffffffff1660e01b81526004016101d7919061099e565b602060405180830381865afa1580156101f4573d6000803e3d6000fd5b505050506040513d601f19601f820116820180604052508101906102189190610a0c565b15156001146102645760405162461bcd60e51b81526020600482015260136024820152724e6f7420612076616c6964204164647265737360681b60448201526064015b60405180910390fd5b6003546040516370a0823160e01b81523360048201819052916000916001600160a01b03909116906370a0823190602401602060405180830381865afa1580156102b2573d6000803e3d6000fd5b505050506040513d601f19601f820116820180604052508101906102d69190610a2e565b905080156103175760405162461bcd60e51b815260206004820152600e60248201526d20b63932b0b23c902b37ba32b21760911b604482015260640161025b565b60008686604051610329929190610a47565b9081526040519081900360200190206002015460ff166103f457604051806060016040528087878080601f016020809104026020016040519081016040528093929190818152602001838380828437600092018290525093855250505060208201819052600160409283015290516103a49089908990610a47565b908152602001604051809103902060008201518160000190805190602001906103ce9291906107e4565b50602082015160018201556040909101516002909101805460ff19169115159190911790555b60008686604051610406929190610a47565b908152604051908190036020019020600101805490600061042683610a6d565b909155505060035460405163a9059cbb60e01b81526001600160a01b03848116600483015260016024830152600092169063a9059cbb906044016020604051808303816000875af115801561047f573d6000803e3d6000fd5b505050506040513d601f19601f820116820180604052508101906104a39190610a0c565b90506001811515146104f75760405162461bcd60e51b815260206004820152601860248201527f5472616e73666572206f6620746f6b656e206661696c65640000000000000000604482015260640161025b565b50506040805180820190915260078152667375636365737360c81b602082015295945050505050565b6001818154811061053057600080fd5b90600052602060002001600091509050805461054b906109d1565b80601f0160208091040260200160405190810160405280929190818152602001828054610577906109d1565b80156105c45780601f10610599576101008083540402835291602001916105c4565b820191906000526020600020905b8154815290600101906020018083116105a757829003601f168201915b505050505081565b600080600084846040516105e1929190610a47565b908152604051908190036020019020600101549150505b92915050565b60408051602a808252606082810190935260009190602082018180368337019050509050600360fc1b8160008151811061063a5761063a610a88565b60200101906001600160f81b031916908160001a905350600f60fb1b8160018151811061066957610669610a88565b60200101906001600160f81b031916908160001a90535060005b60148110156107a7576000610699826013610a9e565b6106a4906008610ab5565b6106af906002610bb8565b6106c2906001600160a01b038716610bda565b60f81b9050600060108260f81c6106d99190610bee565b60f81b905060008160f81c60106106f09190610c10565b8360f81c6106fe9190610c31565b60f81b905061070c826107ae565b85610718866002610ab5565b610723906002610c54565b8151811061073357610733610a88565b60200101906001600160f81b031916908160001a905350610753816107ae565b8561075f866002610ab5565b61076a906003610c54565b8151811061077a5761077a610a88565b60200101906001600160f81b031916908160001a905350505050808061079f90610a6d565b915050610683565b5092915050565b6000600a60f883901c10156107d5576107cc60f883901c6030610c6c565b60f81b92915050565b6107cc60f883901c6057610c6c565b8280546107f0906109d1565b90600052602060002090601f0160209004810192826108125760008555610858565b82601f1061082b57805160ff1916838001178555610858565b82800160010185558215610858579182015b8281111561085857825182559160200191906001019061083d565b50610864929150610868565b5090565b5b808211156108645760008155600101610869565b6000815180845260005b818110156108a357602081850181015186830182015201610887565b818111156108b5576000602083870101525b50601f01601f19169290920160200192915050565b6000602080830181845280855180835260408601915060408160051b870101925083870160005b8281101561091f57603f1988860301845261090d85835161087d565b945092850192908501906001016108f1565b5092979650505050505050565b6000806020838503121561093f57600080fd5b823567ffffffffffffffff8082111561095757600080fd5b818501915085601f83011261096b57600080fd5b81358181111561097a57600080fd5b86602082850101111561098c57600080fd5b60209290920196919550909350505050565b6020815260006109b1602083018461087d565b9392505050565b6000602082840312156109ca57600080fd5b5035919050565b600181811c908216806109e557607f821691505b60208210811415610a0657634e487b7160e01b600052602260045260246000fd5b50919050565b600060208284031215610a1e57600080fd5b815180151581146109b157600080fd5b600060208284031215610a4057600080fd5b5051919050565b8183823760009101908152919050565b634e487b7160e01b600052601160045260246000fd5b6000600019821415610a8157610a81610a57565b5060010190565b634e487b7160e01b600052603260045260246000fd5b600082821015610ab057610ab0610a57565b500390565b6000816000190483118215151615610acf57610acf610a57565b500290565b600181815b80851115610b0f578160001904821115610af557610af5610a57565b80851615610b0257918102915b93841c9390800290610ad9565b509250929050565b600082610b26575060016105f8565b81610b33575060006105f8565b8160018114610b495760028114610b5357610b6f565b60019150506105f8565b60ff841115610b6457610b64610a57565b50506001821b6105f8565b5060208310610133831016604e8410600b8410161715610b92575081810a6105f8565b610b9c8383610ad4565b8060001904821115610bb057610bb0610a57565b029392505050565b60006109b18383610b17565b634e487b7160e01b600052601260045260246000fd5b600082610be957610be9610bc4565b500490565b600060ff831680610c0157610c01610bc4565b8060ff84160491505092915050565b600060ff821660ff84168160ff0481118215151615610bb057610bb0610a57565b600060ff821660ff841680821015610c4b57610c4b610a57565b90039392505050565b60008219821115610c6757610c67610a57565b500190565b600060ff821660ff84168060ff03821115610c8957610c89610a57565b01939250505056fea26469706673582212201f94daea4408d488d46e0ffdec1ea7ce921bd61f3de7a766551c30423da507bd64736f6c634300080b0033",
  "immutableReferences": {},
  "source": "// SPDX-License-Identifier: MIT\npragma solidity 0.8.11;\n\nimport \"./VoteToken.sol\";\nimport \"./VoterData.sol\";\n\nstruct Candidate {\n    string candidate;\n    uint256 count;\n    bool exists;\n}\n\ncontract Vote {\n    mapping(string => Candidate) private count;\n    string[] public candidateList; // Should be predefined list\n    address voterDataAddress;\n    address voterTokenAddress;\n\n    constructor() public {\n        candidateList = [string(\"A\"), \"B\"];\n        voterDataAddress = 0x99c53cd5Bce3E74965ca0624a03812984629f68D;\n        voterTokenAddress = 0x04b2B6FF0b94D2B68dC4fDa10863299E0cB4856D;\n    }\n\n    function toAsciiString(address x) internal pure returns (string memory) {\n        bytes memory s = new bytes(42);\n        s[0] = \"0\";\n        s[1] = \"x\";\n        for (uint256 i = 0; i < 20; i++) {\n            bytes1 b = bytes1(uint8(uint256(uint160(x)) / (2**(8 * (19 - i)))));\n            bytes1 hi = bytes1(uint8(b) / 16);\n            bytes1 lo = bytes1(uint8(b) - 16 * uint8(hi));\n            s[2 * i + 2] = char(hi);\n            s[2 * i + 3] = char(lo);\n        }\n        return string(s);\n    }\n\n    function char(bytes1 b) internal pure returns (bytes1 c) {\n        if (uint8(b) < 10) return bytes1(uint8(b) + 0x30);\n        else return bytes1(uint8(b) + 0x57);\n    }\n\n    modifier validVoter(address add) {\n        require(\n            VoterData(voterDataAddress).isAddressInUse(toAsciiString(add)) ==\n                true,\n            \"Not a valid Address\"\n        );\n        _;\n    }\n\n    function castVote(string calldata candidate)\n        public\n        validVoter(msg.sender)\n        returns (string memory)\n    {\n        address voter = msg.sender;\n\n        uint256 checkIfVoted = IERC20(voterTokenAddress).balanceOf(voter);\n\n        require(checkIfVoted == 0, \"Already Voted.\");\n\n        if (!count[candidate].exists) {\n            count[candidate] = Candidate(candidate, 0, true);\n        }\n        count[candidate].count++;\n        bool transferred = IERC20(voterTokenAddress).transfer(voter, 1);\n        require(transferred == true, \"Transfer of token failed\");\n\n        return (\"success\");\n    }\n\n    function getCount(string calldata candidate) public view returns (uint256) {\n        uint256 cnt = count[candidate].count;\n        return cnt;\n    }\n\n    function getCandidates() public view returns (string[] memory) {\n        return candidateList;\n    }\n}\n",
  "sourcePath": "/home/sudonims/Documents/DAPP Voting/contracts/Vote.sol",
  "compiler": {
    "name": "solc",
    "version": "0.8.11+commit.d7f03943.Emscripten.clang"
  },
  "schemaVersion": "3.4.4",
  "updatedAt": "2022-02-12T10:13:49.922Z",
  "networkType": "ethereum",
  "devdoc": {
    "kind": "dev",
    "methods": {},
    "version": 1
  },
  "userdoc": {
    "kind": "user",
    "methods": {},
    "version": 1
  }
}