{
  "contractName": "VoterData",
  "abi": [
    {
      "inputs": [],
      "stateMutability": "nonpayable",
      "type": "constructor"
    },
    {
      "inputs": [
        {
          "internalType": "string",
          "name": "",
          "type": "string"
        }
      ],
      "name": "addressInUse",
      "outputs": [
        {
          "internalType": "bool",
          "name": "",
          "type": "bool"
        }
      ],
      "stateMutability": "view",
      "type": "function",
      "constant": true
    },
    {
      "inputs": [
        {
          "internalType": "string",
          "name": "",
          "type": "string"
        }
      ],
      "name": "voterID",
      "outputs": [
        {
          "internalType": "bool",
          "name": "",
          "type": "bool"
        }
      ],
      "stateMutability": "view",
      "type": "function",
      "constant": true
    },
    {
      "inputs": [
        {
          "internalType": "string",
          "name": "id",
          "type": "string"
        },
        {
          "internalType": "string",
          "name": "add",
          "type": "string"
        }
      ],
      "name": "registerNewVoter",
      "outputs": [
        {
          "internalType": "string",
          "name": "",
          "type": "string"
        }
      ],
      "stateMutability": "nonpayable",
      "type": "function"
    },
    {
      "inputs": [
        {
          "internalType": "string",
          "name": "add",
          "type": "string"
        }
      ],
      "name": "isAddressInUse",
      "outputs": [
        {
          "internalType": "bool",
          "name": "",
          "type": "bool"
        }
      ],
      "stateMutability": "view",
      "type": "function",
      "constant": true
    }
  ],
  "bytecode": "0x608060405234801561001057600080fd5b50610658806100206000396000f3fe608060405234801561001057600080fd5b506004361061004c5760003560e01c80630edf875514610051578063206602f214610094578063d3ce8fcd146100a7578063f33b66fa146100c7575b600080fd5b61007f61005f36600461037f565b805160208183018101805160018252928201919093012091525460ff1681565b60405190151581526020015b60405180910390f35b61007f6100a2366004610479565b6100f5565b6100ba6100b53660046104bb565b61016d565b60405161008b9190610557565b61007f6100d536600461037f565b805160208183018101805160008252928201919093012091525460ff1681565b6000600161013884848080601f0160208091040260200160405190810160405280939291908181526020018383808284376000920191909152506102a092505050565b604051610145919061058a565b9081526040519081900360200190205460ff16610163576000610166565b60015b9392505050565b6060600085856040516101819291906105a6565b9081526040519081900360200190205460ff16610262576001600086866040516101ac9291906105a6565b9081526040805160209281900383018120805460ff191694151594909417909355601f850182900482028301820190528382526001918291610209919087908790819084018382808284376000920191909152506102a092505050565b604051610216919061058a565b908152602001604051809103902060006101000a81548160ff021916908315150217905550604051806040016040528060078152602001667375636365737360c81b8152509050610298565b5060408051808201909152601881527f566f74657220616c72656164792072656769737465726564000000000000000060208201525b949350505050565b60608160005b8151811015610313576102d88282815181106102c4576102c46105b6565b01602001516001600160f81b03191661031a565b8282815181106102ea576102ea6105b6565b60200101906001600160f81b031916908160001a9053508061030b816105e2565b9150506102a6565b5092915050565b6000604160f81b6001600160f81b03198316108015906103485750602d60f91b6001600160f81b0319831611155b156103655761035c60f883901c60206105fd565b60f81b92915050565b5090565b634e487b7160e01b600052604160045260246000fd5b60006020828403121561039157600080fd5b813567ffffffffffffffff808211156103a957600080fd5b818401915084601f8301126103bd57600080fd5b8135818111156103cf576103cf610369565b604051601f8201601f19908116603f011681019083821181831017156103f7576103f7610369565b8160405282815287602084870101111561041057600080fd5b826020860160208301376000928101602001929092525095945050505050565b60008083601f84011261044257600080fd5b50813567ffffffffffffffff81111561045a57600080fd5b60208301915083602082850101111561047257600080fd5b9250929050565b6000806020838503121561048c57600080fd5b823567ffffffffffffffff8111156104a357600080fd5b6104af85828601610430565b90969095509350505050565b600080600080604085870312156104d157600080fd5b843567ffffffffffffffff808211156104e957600080fd5b6104f588838901610430565b9096509450602087013591508082111561050e57600080fd5b5061051b87828801610430565b95989497509550505050565b60005b8381101561054257818101518382015260200161052a565b83811115610551576000848401525b50505050565b6020815260008251806020840152610576816040850160208701610527565b601f01601f19169190910160400192915050565b6000825161059c818460208701610527565b9190910192915050565b8183823760009101908152919050565b634e487b7160e01b600052603260045260246000fd5b634e487b7160e01b600052601160045260246000fd5b60006000198214156105f6576105f66105cc565b5060010190565b600060ff821660ff84168060ff0382111561061a5761061a6105cc565b01939250505056fea264697066735822122022c7d18189936ebfb6b2a75c7fae4002cdbd7a1dcf5e43d1a5096857234d59b864736f6c634300080b0033",
  "immutableReferences": {},
  "source": "// SPDX-License-Identifier: MIT\npragma solidity 0.8.11;\n\ncontract VoterData {\n    mapping(string => bool) public voterID;\n    mapping(string => bool) public addressInUse;\n\n    constructor() public {}\n\n    function lower(string memory _base) internal pure returns (string memory) {\n        bytes memory _baseBytes = bytes(_base);\n        for (uint256 i = 0; i < _baseBytes.length; i++) {\n            _baseBytes[i] = _lower(_baseBytes[i]);\n        }\n        return string(_baseBytes);\n    }\n\n    function _lower(bytes1 _b1) private pure returns (bytes1) {\n        if (_b1 >= 0x41 && _b1 <= 0x5A) {\n            return bytes1(uint8(_b1) + 32);\n        }\n\n        return _b1;\n    }\n\n    function registerNewVoter(string calldata id, string calldata add)\n        public\n        returns (string memory)\n    {\n        if (!voterID[id]) {\n            voterID[id] = true;\n            addressInUse[lower(add)] = true;\n            return (\"success\");\n        } else {\n            return (\"Voter already registered\");\n        }\n    }\n\n    function isAddressInUse(string calldata add) external view returns (bool) {\n        return addressInUse[lower(add)] ? true : false;\n    }\n}\n",
  "sourcePath": "/home/sudonims/Documents/DAPP Voting/contracts/VoterData.sol",
  "compiler": {
    "name": "solc",
    "version": "0.8.11+commit.d7f03943.Emscripten.clang"
  },
  "schemaVersion": "3.4.4",
  "updatedAt": "2022-01-28T18:27:53.125Z",
  "networkType": "ethereum",
  "devdoc": {
    "kind": "dev",
    "methods": {},
    "version": 1
  },
  "userdoc": {
    "kind": "user",
    "methods": {},
    "version": 1
  }
}