{
  "contractName": "Vote",
  "abi": [
    {
      "inputs": [],
      "stateMutability": "nonpayable",
      "type": "constructor"
    },
    {
      "inputs": [
        {
          "internalType": "uint256",
          "name": "",
          "type": "uint256"
        }
      ],
      "name": "candidateList",
      "outputs": [
        {
          "internalType": "string",
          "name": "",
          "type": "string"
        }
      ],
      "stateMutability": "view",
      "type": "function",
      "constant": true
    },
    {
      "inputs": [
        {
          "internalType": "address",
          "name": "",
          "type": "address"
        }
      ],
      "name": "votesDone",
      "outputs": [
        {
          "internalType": "address",
          "name": "add",
          "type": "address"
        },
        {
          "internalType": "bool",
          "name": "exists",
          "type": "bool"
        }
      ],
      "stateMutability": "view",
      "type": "function",
      "constant": true
    },
    {
      "inputs": [],
      "name": "getCandidates",
      "outputs": [
        {
          "internalType": "string[]",
          "name": "",
          "type": "string[]"
        }
      ],
      "stateMutability": "view",
      "type": "function",
      "constant": true
    },
    {
      "inputs": [
        {
          "internalType": "string",
          "name": "candidate",
          "type": "string"
        }
      ],
      "name": "castVote",
      "outputs": [
        {
          "internalType": "string",
          "name": "",
          "type": "string"
        }
      ],
      "stateMutability": "nonpayable",
      "type": "function"
    },
    {
      "inputs": [
        {
          "internalType": "string",
          "name": "candidate",
          "type": "string"
        }
      ],
      "name": "getCount",
      "outputs": [
        {
          "internalType": "uint256",
          "name": "",
          "type": "uint256"
        }
      ],
      "stateMutability": "view",
      "type": "function",
      "constant": true
    }
  ],
  "bytecode": "0x60806040523480156200001157600080fd5b50604080516080810182526001818301818152604160f81b606084015282528251808401909352808352602160f91b6020848101919091528201929092526200005d91906002620000b0565b506040516200006c9062000114565b604051809103906000f08015801562000089573d6000803e3d6000fd5b50600280546001600160a01b0319166001600160a01b039290921691909117905562000264565b82805482825590600052602060002090810192821562000102579160200282015b82811115620001025782518051620000f191849160209091019062000122565b5091602001919060010190620000d1565b5062000110929150620001ad565b5090565b61066780620009e483390190565b828054620001309062000227565b90600052602060002090601f0160209004810192826200015457600085556200019f565b82601f106200016f57805160ff19168380011785556200019f565b828001600101855582156200019f579182015b828111156200019f57825182559160200191906001019062000182565b5062000110929150620001ce565b8082111562000110576000620001c48282620001e5565b50600101620001ad565b5b80821115620001105760008155600101620001cf565b508054620001f39062000227565b6000825580601f1062000204575050565b601f016020900490600052602060002090810190620002249190620001ce565b50565b600181811c908216806200023c57607f821691505b602082108114156200025e57634e487b7160e01b600052602260045260246000fd5b50919050565b61077080620002746000396000f3fe608060405234801561001057600080fd5b50600436106100575760003560e01c806306a49fce1461005c5780630b1e71c21461007a5780639cc2d993146100ce578063b13c744b146100ee578063f001a55114610101575b600080fd5b610064610122565b6040516100719190610596565b60405180910390f35b6100af6100883660046105f8565b6003602052600090815260409020546001600160a01b03811690600160a01b900460ff1682565b604080516001600160a01b039093168352901515602083015201610071565b6100e16100dc366004610628565b6101fb565b604051610071919061069a565b6100e16100fc3660046106ad565b6103d3565b61011461010f366004610628565b61047f565b604051908152602001610071565b60606001805480602002602001604051908101604052809291908181526020016000905b828210156101f2578382906000526020600020018054610165906106c6565b80601f0160208091040260200160405190810160405280929190818152602001828054610191906106c6565b80156101de5780601f106101b3576101008083540402835291602001916101de565b820191906000526020600020905b8154815290600101906020018083116101c157829003601f168201915b505050505081526020019060010190610146565b50505050905090565b3360008181526003602052604090205460609190600160a01b900460ff166103aa576040805180820182526001600160a01b03808416808352600160208085019182526000928352600390528482209351845491511515600160a01b026001600160a81b03199092169316929092179190911790915590516102809086908690610701565b9081526040519081900360200190206002015460ff1661034b57604051806060016040528085858080601f016020809104026020016040519081016040528093929190818152602001838380828437600092018290525093855250505060208201819052600160409283015290516102fb9087908790610701565b908152602001604051809103902060008201518160000190805190602001906103259291906104b0565b50602082015160018201556040909101516002909101805460ff19169115159190911790555b6000848460405161035d929190610701565b908152604051908190036020019020600101805490600061037d83610711565b9190505550604051806040016040528060078152602001667375636365737360c81b8152509150506103cd565b5050604080518082019091526009815268766f746520646f6e6560b81b60208201525b92915050565b600181815481106103e357600080fd5b9060005260206000200160009150905080546103fe906106c6565b80601f016020809104026020016040519081016040528092919081815260200182805461042a906106c6565b80156104775780601f1061044c57610100808354040283529160200191610477565b820191906000526020600020905b81548152906001019060200180831161045a57829003601f168201915b505050505081565b60008060008484604051610494929190610701565b9081526040519081900360200190206001015491505092915050565b8280546104bc906106c6565b90600052602060002090601f0160209004810192826104de5760008555610524565b82601f106104f757805160ff1916838001178555610524565b82800160010185558215610524579182015b82811115610524578251825591602001919060010190610509565b50610530929150610534565b5090565b5b808211156105305760008155600101610535565b6000815180845260005b8181101561056f57602081850181015186830182015201610553565b81811115610581576000602083870101525b50601f01601f19169290920160200192915050565b6000602080830181845280855180835260408601915060408160051b870101925083870160005b828110156105eb57603f198886030184526105d9858351610549565b945092850192908501906001016105bd565b5092979650505050505050565b60006020828403121561060a57600080fd5b81356001600160a01b038116811461062157600080fd5b9392505050565b6000806020838503121561063b57600080fd5b823567ffffffffffffffff8082111561065357600080fd5b818501915085601f83011261066757600080fd5b81358181111561067657600080fd5b86602082850101111561068857600080fd5b60209290920196919550909350505050565b6020815260006106216020830184610549565b6000602082840312156106bf57600080fd5b5035919050565b600181811c908216806106da57607f821691505b602082108114156106fb57634e487b7160e01b600052602260045260246000fd5b50919050565b8183823760009101908152919050565b600060001982141561073357634e487b7160e01b600052601160045260246000fd5b506001019056fea26469706673582212209716609c0e6820735fb23fa52874079ff9f7087d7e5f4942d8e7a2f19ee3606964736f6c634300080b0033608060405234801561001057600080fd5b5064174876e80060028190553360009081526020819052604090205561062c8061003b6000396000f3fe608060405234801561001057600080fd5b50600436106100935760003560e01c8063313ce56711610066578063313ce5671461011e57806370a082311461013857806395d89b4114610161578063a9059cbb14610184578063dd62ed3e1461019757600080fd5b806306fdde0314610098578063095ea7b3146100d657806318160ddd146100f957806323b872dd1461010b575b600080fd5b6100c0604051806040016040528060098152602001682b37ba32aa37b5b2b760b91b81525081565b6040516100cd9190610476565b60405180910390f35b6100e96100e43660046104e7565b6101d0565b60405190151581526020016100cd565b6002545b6040519081526020016100cd565b6100e9610119366004610511565b61023c565b610126600081565b60405160ff90911681526020016100cd565b6100fd61014636600461054d565b6001600160a01b031660009081526020819052604090205490565b6100c0604051806040016040528060048152602001632b2a25a760e11b81525081565b6100e96101923660046104e7565b610384565b6100fd6101a5366004610568565b6001600160a01b03918216600090815260016020908152604080832093909416825291909152205490565b3360008181526001602090815260408083206001600160a01b038716808552925280832085905551919290917f8c5be1e5ebec7d5bd14f71427d1e84f3dd0314c0f7b2291e5b200ac8c7c3b9259061022b9086815260200190565b60405180910390a350600192915050565b6001600160a01b03831660009081526020819052604081205482111561026157600080fd5b6001600160a01b038416600090815260016020908152604080832033845290915290205482111561029157600080fd5b6001600160a01b0384166000908152602081905260409020546102b49083610434565b6001600160a01b0385166000908152602081815260408083209390935560018152828220338352905220546102e99083610434565b6001600160a01b03808616600090815260016020908152604080832033845282528083209490945591861681529081905220546103269083610457565b6001600160a01b038481166000818152602081815260409182902094909455518581529092918716917fddf252ad1be2c89b69c2b068fc378daa952ba7f163c4a11628f55a4df523b3ef910160405180910390a35060019392505050565b336000908152602081905260408120548211156103a057600080fd5b336000908152602081905260409020546103ba9083610434565b33600090815260208190526040808220929092556001600160a01b038516815220546103e69083610457565b6001600160a01b038416600081815260208181526040918290209390935551848152909133917fddf252ad1be2c89b69c2b068fc378daa952ba7f163c4a11628f55a4df523b3ef910161022b565b6000828211156104465761044661059b565b61045082846105c7565b9392505050565b60008061046483856105de565b9050838110156104505761045061059b565b600060208083528351808285015260005b818110156104a357858101830151858201604001528201610487565b818111156104b5576000604083870101525b50601f01601f1916929092016040019392505050565b80356001600160a01b03811681146104e257600080fd5b919050565b600080604083850312156104fa57600080fd5b610503836104cb565b946020939093013593505050565b60008060006060848603121561052657600080fd5b61052f846104cb565b925061053d602085016104cb565b9150604084013590509250925092565b60006020828403121561055f57600080fd5b610450826104cb565b6000806040838503121561057b57600080fd5b610584836104cb565b9150610592602084016104cb565b90509250929050565b634e487b7160e01b600052600160045260246000fd5b634e487b7160e01b600052601160045260246000fd5b6000828210156105d9576105d96105b1565b500390565b600082198211156105f1576105f16105b1565b50019056fea264697066735822122017b1e2197f4e25c224464054eb6f5342135b34acba743033125d2291f7f4ad5d64736f6c634300080b0033",
  "immutableReferences": {},
  "source": "// SPDX-License-Identifier: MIT\npragma solidity 0.8.11;\n\nimport \"./VoteToken.sol\";\n\nstruct Voter {\n    address add;\n    bool exists;\n}\n\nstruct Candidate {\n    string candidate;\n    uint256 count;\n    bool exists;\n}\n\ncontract Vote {\n    mapping(string => Candidate) private count;\n    string[] public candidateList; // Should be predefined list\n    VoteToken token;\n\n    mapping(address => Voter) public votesDone;\n\n    constructor() public {\n        candidateList = [string(\"A\"), \"B\"];\n        token = new VoteToken();\n    }\n\n    function getCandidates() public view returns (string[] memory) {\n        return candidateList;\n    }\n\n    function castVote(string calldata candidate)\n        public\n        returns (string memory)\n    {\n        address voter = msg.sender;\n\n        if (!votesDone[voter].exists) {\n            votesDone[voter] = Voter(voter, true);\n\n            if (!count[candidate].exists) {\n                count[candidate] = Candidate(candidate, 0, true);\n            }\n            count[candidate].count++;\n\n            return (\"success\");\n        }\n        return (\"vote done\");\n    }\n\n    function getCount(string calldata candidate) public view returns (uint256) {\n        uint256 cnt = count[candidate].count;\n        return cnt;\n    }\n}\n",
  "sourcePath": "/home/sudonims/Documents/DAPP Voting/contracts/Vote.sol",
  "compiler": {
    "name": "solc",
    "version": "0.8.11+commit.d7f03943.Emscripten.clang"
  },
  "schemaVersion": "3.4.4",
  "updatedAt": "2022-01-23T12:55:49.880Z",
  "networkType": "ethereum",
  "devdoc": {
    "kind": "dev",
    "methods": {},
    "version": 1
  },
  "userdoc": {
    "kind": "user",
    "methods": {},
    "version": 1
  }
}