{
  "contractName": "Vote",
  "abi": [
    {
      "inputs": [],
      "stateMutability": "nonpayable",
      "type": "constructor"
    },
    {
      "inputs": [
        {
          "internalType": "uint256",
          "name": "",
          "type": "uint256"
        }
      ],
      "name": "candidateList",
      "outputs": [
        {
          "internalType": "string",
          "name": "",
          "type": "string"
        }
      ],
      "stateMutability": "view",
      "type": "function",
      "constant": true
    },
    {
      "inputs": [
        {
          "internalType": "address",
          "name": "",
          "type": "address"
        }
      ],
      "name": "votesDone",
      "outputs": [
        {
          "internalType": "address",
          "name": "add",
          "type": "address"
        },
        {
          "internalType": "bool",
          "name": "exists",
          "type": "bool"
        }
      ],
      "stateMutability": "view",
      "type": "function",
      "constant": true
    },
    {
      "inputs": [],
      "name": "getCandidates",
      "outputs": [
        {
          "internalType": "string[]",
          "name": "",
          "type": "string[]"
        }
      ],
      "stateMutability": "view",
      "type": "function",
      "constant": true
    },
    {
      "inputs": [
        {
          "internalType": "address",
          "name": "x",
          "type": "address"
        }
      ],
      "name": "toAsciiString",
      "outputs": [
        {
          "internalType": "string",
          "name": "",
          "type": "string"
        }
      ],
      "stateMutability": "view",
      "type": "function",
      "constant": true
    },
    {
      "inputs": [
        {
          "internalType": "string",
          "name": "candidate",
          "type": "string"
        }
      ],
      "name": "castVote",
      "outputs": [
        {
          "internalType": "string",
          "name": "",
          "type": "string"
        }
      ],
      "stateMutability": "nonpayable",
      "type": "function"
    },
    {
      "inputs": [
        {
          "internalType": "string",
          "name": "candidate",
          "type": "string"
        }
      ],
      "name": "getCount",
      "outputs": [
        {
          "internalType": "int256",
          "name": "",
          "type": "int256"
        }
      ],
      "stateMutability": "view",
      "type": "function",
      "constant": true
    }
  ],
  "bytecode": "0x60806040523480156200001157600080fd5b50604080516080810182526001818301818152604160f81b606084015282528251808401909352808352602160f91b6020848101919091528201929092526200005d919060026200008a565b50600280546001600160a01b031916736b25ac500ebbf158a02f6544f8fc3f1330d4f5aa17905562000230565b828054828255906000526020600020908101928215620000dc579160200282015b82811115620000dc5782518051620000cb918491602090910190620000ee565b5091602001919060010190620000ab565b50620000ea92915062000179565b5090565b828054620000fc90620001f3565b90600052602060002090601f0160209004810192826200012057600085556200016b565b82601f106200013b57805160ff19168380011785556200016b565b828001600101855582156200016b579182015b828111156200016b5782518255916020019190600101906200014e565b50620000ea9291506200019a565b80821115620000ea576000620001908282620001b1565b5060010162000179565b5b80821115620000ea57600081556001016200019b565b508054620001bf90620001f3565b6000825580601f10620001d0575050565b601f016020900490600052602060002090810190620001f091906200019a565b50565b600181811c908216806200020857607f821691505b602082108114156200022a57634e487b7160e01b600052602260045260246000fd5b50919050565b610c9680620002406000396000f3fe608060405234801561001057600080fd5b50600436106100625760003560e01c806306a49fce146100675780630b1e71c2146100855780632c6e7598146100d95780639cc2d993146100f9578063b13c744b1461010c578063f001a5511461011f575b600080fd5b61006f610140565b60405161007c9190610870565b60405180910390f35b6100ba6100933660046108d2565b6003602052600090815260409020546001600160a01b03811690600160a01b900460ff1682565b604080516001600160a01b03909316835290151560208301520161007c565b6100ec6100e73660046108d2565b610219565b60405161007c9190610902565b6100ec610107366004610915565b6103cc565b6100ec61011a366004610987565b610677565b61013261012d366004610915565b610723565b60405190815260200161007c565b60606001805480602002602001604051908101604052809291908181526020016000905b82821015610210578382906000526020600020018054610183906109a0565b80601f01602080910402602001604051908101604052809291908181526020018280546101af906109a0565b80156101fc5780601f106101d1576101008083540402835291602001916101fc565b820191906000526020600020905b8154815290600101906020018083116101df57829003601f168201915b505050505081526020019060010190610164565b50505050905090565b5060408051602a8082526060828101909352339291600091602082018180368337019050509050600360fc1b81600081518110610258576102586109db565b60200101906001600160f81b031916908160001a905350600f60fb1b81600181518110610287576102876109db565b60200101906001600160f81b031916908160001a90535060005b60148110156103c55760006102b7826013610a07565b6102c2906008610a1e565b6102cd906002610b21565b6102e0906001600160a01b038716610b43565b60f81b9050600060108260f81c6102f79190610b57565b60f81b905060008160f81c601061030e9190610b79565b8360f81c61031c9190610b9a565b60f81b905061032a82610754565b85610336866002610a1e565b610341906002610bbd565b81518110610351576103516109db565b60200101906001600160f81b031916908160001a90535061037181610754565b8561037d866002610a1e565b610388906003610bbd565b81518110610398576103986109db565b60200101906001600160f81b031916908160001a90535050505080806103bd90610bd5565b9150506102a1565b5092915050565b60025460609033906000906001600160a01b031663206602f26103ee84610219565b6040518263ffffffff1660e01b815260040161040a9190610902565b602060405180830381865afa158015610427573d6000803e3d6000fd5b505050506040513d601f19601f8201168201806040525081019061044b9190610bf0565b90506001811515146104955760405162461bcd60e51b815260206004820152600f60248201526e159bdd195c88139bdd0815985b1a59608a1b604482015260640160405180910390fd5b6001600160a01b038216600090815260036020526040902054600160a01b900460ff1661064a576040805180820182526001600160a01b03808516808352600160208085019182526000928352600390528482209351845491511515600160a01b026001600160a81b031990921693169290921791909117909155905161051f9087908790610c12565b9081526040519081900360200190206002015460ff166105ea57604051806060016040528086868080601f0160208091040260200160405190810160405280939291908181526020018383808284376000920182905250938552505050602082018190526001604092830152905161059a9088908890610c12565b908152602001604051809103902060008201518160000190805190602001906105c492919061078a565b50602082015160018201556040909101516002909101805460ff19169115159190911790555b600085856040516105fc929190610c12565b908152604051908190036020019020600101805490600061061c83610c22565b9190505550604051806040016040528060078152602001667375636365737360c81b81525092505050610671565b60405180604001604052806009815260200168766f746520646f6e6560b81b815250925050505b92915050565b6001818154811061068757600080fd5b9060005260206000200160009150905080546106a2906109a0565b80601f01602080910402602001604051908101604052809291908181526020018280546106ce906109a0565b801561071b5780601f106106f05761010080835404028352916020019161071b565b820191906000526020600020905b8154815290600101906020018083116106fe57829003601f168201915b505050505081565b60008060008484604051610738929190610c12565b9081526040519081900360200190206001015491505092915050565b6000600a60f883901c101561077b5761077260f883901c6030610c3b565b60f81b92915050565b61077260f883901c6057610c3b565b828054610796906109a0565b90600052602060002090601f0160209004810192826107b857600085556107fe565b82601f106107d157805160ff19168380011785556107fe565b828001600101855582156107fe579182015b828111156107fe5782518255916020019190600101906107e3565b5061080a92915061080e565b5090565b5b8082111561080a576000815560010161080f565b6000815180845260005b818110156108495760208185018101518683018201520161082d565b8181111561085b576000602083870101525b50601f01601f19169290920160200192915050565b6000602080830181845280855180835260408601915060408160051b870101925083870160005b828110156108c557603f198886030184526108b3858351610823565b94509285019290850190600101610897565b5092979650505050505050565b6000602082840312156108e457600080fd5b81356001600160a01b03811681146108fb57600080fd5b9392505050565b6020815260006108fb6020830184610823565b6000806020838503121561092857600080fd5b823567ffffffffffffffff8082111561094057600080fd5b818501915085601f83011261095457600080fd5b81358181111561096357600080fd5b86602082850101111561097557600080fd5b60209290920196919550909350505050565b60006020828403121561099957600080fd5b5035919050565b600181811c908216806109b457607f821691505b602082108114156109d557634e487b7160e01b600052602260045260246000fd5b50919050565b634e487b7160e01b600052603260045260246000fd5b634e487b7160e01b600052601160045260246000fd5b600082821015610a1957610a196109f1565b500390565b6000816000190483118215151615610a3857610a386109f1565b500290565b600181815b80851115610a78578160001904821115610a5e57610a5e6109f1565b80851615610a6b57918102915b93841c9390800290610a42565b509250929050565b600082610a8f57506001610671565b81610a9c57506000610671565b8160018114610ab25760028114610abc57610ad8565b6001915050610671565b60ff841115610acd57610acd6109f1565b50506001821b610671565b5060208310610133831016604e8410600b8410161715610afb575081810a610671565b610b058383610a3d565b8060001904821115610b1957610b196109f1565b029392505050565b60006108fb8383610a80565b634e487b7160e01b600052601260045260246000fd5b600082610b5257610b52610b2d565b500490565b600060ff831680610b6a57610b6a610b2d565b8060ff84160491505092915050565b600060ff821660ff84168160ff0481118215151615610b1957610b196109f1565b600060ff821660ff841680821015610bb457610bb46109f1565b90039392505050565b60008219821115610bd057610bd06109f1565b500190565b6000600019821415610be957610be96109f1565b5060010190565b600060208284031215610c0257600080fd5b815180151581146108fb57600080fd5b8183823760009101908152919050565b60006001600160ff1b03821415610be957610be96109f1565b600060ff821660ff84168060ff03821115610c5857610c586109f1565b01939250505056fea26469706673582212204c9bfc4b683335d1701c2283362bb6b7f7ee72826342af5032e2f853f959de9364736f6c634300080b0033",
  "immutableReferences": {},
  "source": "// SPDX-License-Identifier: MIT\npragma solidity 0.8.11;\n\ninterface VoterData {\n    function isAddressInUse(string memory add) external view returns (bool);\n}\n\nstruct Voter {\n    address add;\n    bool exists;\n}\n\nstruct Candidate {\n    string candidate;\n    int256 count;\n    bool exists;\n}\n\ncontract Vote {\n    mapping(string => Candidate) private count;\n    string[] public candidateList; // Should be predefined list\n    address voterDataAddress;\n    mapping(address => Voter) public votesDone;\n\n    constructor() public {\n        candidateList = [string(\"A\"), \"B\"];\n        voterDataAddress = 0x6b25Ac500EBBf158A02f6544f8fC3f1330D4F5aa;\n    }\n\n    function getCandidates() public view returns (string[] memory) {\n        return candidateList;\n    }\n\n    function toAsciiString(address x) public view returns (string memory) {\n        x = msg.sender;\n        bytes memory s = new bytes(42);\n        s[0] = \"0\";\n        s[1] = \"x\";\n        for (uint256 i = 0; i < 20; i++) {\n            bytes1 b = bytes1(uint8(uint256(uint160(x)) / (2**(8 * (19 - i)))));\n            bytes1 hi = bytes1(uint8(b) / 16);\n            bytes1 lo = bytes1(uint8(b) - 16 * uint8(hi));\n            s[2 * i + 2] = char(hi);\n            s[2 * i + 3] = char(lo);\n        }\n        return string(s);\n    }\n\n    function char(bytes1 b) internal pure returns (bytes1 c) {\n        if (uint8(b) < 10) return bytes1(uint8(b) + 0x30);\n        else return bytes1(uint8(b) + 0x57);\n    }\n\n    // modifier validVoter(string memory add) {\n    //     require( // string memory a = \"0x769043945515e7A25e8B9A4DD6a93f637B6b5F6e\";\n    //         keccak256(bytes(add)) == keccak256(bytes(a)),\n    //         \"Not a valid Address\"\n    //     );\n    //     _;\n    // }\n\n    function castVote(string calldata candidate)\n        public\n        returns (string memory)\n    {\n        address voter = msg.sender;\n\n        bool isValid = VoterData(voterDataAddress).isAddressInUse(\n            toAsciiString(voter)\n        );\n\n        require(isValid == true, \"Voter Not Valid\");\n\n        if (!votesDone[voter].exists) {\n            votesDone[voter] = Voter(voter, true);\n\n            if (!count[candidate].exists) {\n                count[candidate] = Candidate(candidate, 0, true);\n            }\n            count[candidate].count++;\n            return (\"success\");\n        }\n        return (\"vote done\");\n    }\n\n    function getCount(string calldata candidate)\n        external\n        view\n        returns (int256)\n    {\n        int256 cnt = count[candidate].count;\n        return cnt;\n    }\n}\n",
  "sourcePath": "/home/sudonims/Documents/DAPP Voting/contracts/Vote.sol",
  "compiler": {
    "name": "solc",
    "version": "0.8.11+commit.d7f03943.Emscripten.clang"
  },
  "schemaVersion": "3.4.4",
  "updatedAt": "2022-01-26T19:37:51.748Z",
  "networkType": "ethereum",
  "devdoc": {
    "kind": "dev",
    "methods": {},
    "version": 1
  },
  "userdoc": {
    "kind": "user",
    "methods": {},
    "version": 1
  }
}