{
  "contractName": "Vote",
  "abi": [
    {
      "inputs": [],
      "stateMutability": "nonpayable",
      "type": "constructor"
    },
    {
      "inputs": [
        {
          "internalType": "uint256",
          "name": "",
          "type": "uint256"
        }
      ],
      "name": "candidateList",
      "outputs": [
        {
          "internalType": "string",
          "name": "",
          "type": "string"
        }
      ],
      "stateMutability": "view",
      "type": "function",
      "constant": true
    },
    {
      "inputs": [
        {
          "internalType": "address",
          "name": "",
          "type": "address"
        }
      ],
      "name": "votesDone",
      "outputs": [
        {
          "internalType": "address",
          "name": "add",
          "type": "address"
        },
        {
          "internalType": "bool",
          "name": "exists",
          "type": "bool"
        }
      ],
      "stateMutability": "view",
      "type": "function",
      "constant": true
    },
    {
      "inputs": [
        {
          "internalType": "string",
          "name": "candidate",
          "type": "string"
        }
      ],
      "name": "castVote",
      "outputs": [
        {
          "internalType": "string",
          "name": "",
          "type": "string"
        }
      ],
      "stateMutability": "nonpayable",
      "type": "function"
    },
    {
      "inputs": [
        {
          "internalType": "string",
          "name": "candidate",
          "type": "string"
        }
      ],
      "name": "getCount",
      "outputs": [
        {
          "internalType": "uint256",
          "name": "",
          "type": "uint256"
        }
      ],
      "stateMutability": "view",
      "type": "function",
      "constant": true
    },
    {
      "inputs": [],
      "name": "getCandidates",
      "outputs": [
        {
          "internalType": "string[]",
          "name": "",
          "type": "string[]"
        }
      ],
      "stateMutability": "view",
      "type": "function",
      "constant": true
    }
  ],
  "bytecode": "0x60806040523480156200001157600080fd5b50604080516080810182526001818301818152604160f81b606084015282528251808401909352808352602160f91b6020848101919091528201929092526200005d91906002620000ac565b50600280546001600160a01b0319908116730e96fce59948455b1961d75505ea198e06bdd7ec1790915560038054909116738fab6f8d9b6819cf1fd886a3f558a77604f9dd0717905562000252565b828054828255906000526020600020908101928215620000fe579160200282015b82811115620000fe5782518051620000ed91849160209091019062000110565b5091602001919060010190620000cd565b506200010c9291506200019b565b5090565b8280546200011e9062000215565b90600052602060002090601f0160209004810192826200014257600085556200018d565b82601f106200015d57805160ff19168380011785556200018d565b828001600101855582156200018d579182015b828111156200018d57825182559160200191906001019062000170565b506200010c929150620001bc565b808211156200010c576000620001b28282620001d3565b506001016200019b565b5b808211156200010c5760008155600101620001bd565b508054620001e19062000215565b6000825580601f10620001f2575050565b601f016020900490600052602060002090810190620002129190620001bc565b50565b600181811c908216806200022a57607f821691505b602082108114156200024c57634e487b7160e01b600052602260045260246000fd5b50919050565b610d4f80620002626000396000f3fe608060405234801561001057600080fd5b50600436106100575760003560e01c806306a49fce1461005c5780630b1e71c21461007a5780639cc2d993146100ce578063b13c744b146100ee578063f001a55114610101575b600080fd5b610064610122565b6040516100719190610929565b60405180910390f35b6100af61008836600461098b565b6004602052600090815260409020546001600160a01b03811690600160a01b900460ff1682565b604080516001600160a01b039093168352901515602083015201610071565b6100e16100dc3660046109bb565b6101fb565b6040516100719190610a2d565b6100e16100fc366004610a40565b61057f565b61011461010f3660046109bb565b61062b565b604051908152602001610071565b60606001805480602002602001604051908101604052809291908181526020016000905b828210156101f257838290600052602060002001805461016590610a59565b80601f016020809104026020016040519081016040528092919081815260200182805461019190610a59565b80156101de5780601f106101b3576101008083540402835291602001916101de565b820191906000526020600020905b8154815290600101906020018083116101c157829003601f168201915b505050505081526020019060010190610146565b50505050905090565b60025460609033906001600160a01b031663206602f261021a8361065d565b6040518263ffffffff1660e01b81526004016102369190610a2d565b602060405180830381865afa158015610253573d6000803e3d6000fd5b505050506040513d601f19601f820116820180604052508101906102779190610a94565b15156001146102c35760405162461bcd60e51b81526020600482015260136024820152724e6f7420612076616c6964204164647265737360681b60448201526064015b60405180910390fd5b6003546040516370a0823160e01b81523360048201819052916000916001600160a01b03909116906370a0823190602401602060405180830381865afa158015610311573d6000803e3d6000fd5b505050506040513d601f19601f820116820180604052508101906103359190610ab6565b905080156103765760405162461bcd60e51b815260206004820152600e60248201526d20b63932b0b23c902b37ba32b21760911b60448201526064016102ba565b60008686604051610388929190610acf565b9081526040519081900360200190206002015460ff1661045357604051806060016040528087878080601f016020809104026020016040519081016040528093929190818152602001838380828437600092018290525093855250505060208201819052600160409283015290516104039089908990610acf565b9081526020016040518091039020600082015181600001908051906020019061042d929190610843565b50602082015160018201556040909101516002909101805460ff19169115159190911790555b60008686604051610465929190610acf565b908152604051908190036020019020600101805490600061048583610af5565b909155505060035460405163a9059cbb60e01b81526001600160a01b03848116600483015260016024830152600092169063a9059cbb906044016020604051808303816000875af11580156104de573d6000803e3d6000fd5b505050506040513d601f19601f820116820180604052508101906105029190610a94565b90506001811515146105565760405162461bcd60e51b815260206004820152601860248201527f5472616e73666572206f6620746f6b656e206661696c6564000000000000000060448201526064016102ba565b50506040805180820190915260078152667375636365737360c81b602082015295945050505050565b6001818154811061058f57600080fd5b9060005260206000200160009150905080546105aa90610a59565b80601f01602080910402602001604051908101604052809291908181526020018280546105d690610a59565b80156106235780601f106105f857610100808354040283529160200191610623565b820191906000526020600020905b81548152906001019060200180831161060657829003601f168201915b505050505081565b60008060008484604051610640929190610acf565b908152604051908190036020019020600101549150505b92915050565b60408051602a808252606082810190935260009190602082018180368337019050509050600360fc1b8160008151811061069957610699610b10565b60200101906001600160f81b031916908160001a905350600f60fb1b816001815181106106c8576106c8610b10565b60200101906001600160f81b031916908160001a90535060005b60148110156108065760006106f8826013610b26565b610703906008610b3d565b61070e906002610c40565b610721906001600160a01b038716610c62565b60f81b9050600060108260f81c6107389190610c76565b60f81b905060008160f81c601061074f9190610c98565b8360f81c61075d9190610cb9565b60f81b905061076b8261080d565b85610777866002610b3d565b610782906002610cdc565b8151811061079257610792610b10565b60200101906001600160f81b031916908160001a9053506107b28161080d565b856107be866002610b3d565b6107c9906003610cdc565b815181106107d9576107d9610b10565b60200101906001600160f81b031916908160001a90535050505080806107fe90610af5565b9150506106e2565b5092915050565b6000600a60f883901c10156108345761082b60f883901c6030610cf4565b60f81b92915050565b61082b60f883901c6057610cf4565b82805461084f90610a59565b90600052602060002090601f01602090048101928261087157600085556108b7565b82601f1061088a57805160ff19168380011785556108b7565b828001600101855582156108b7579182015b828111156108b757825182559160200191906001019061089c565b506108c39291506108c7565b5090565b5b808211156108c357600081556001016108c8565b6000815180845260005b81811015610902576020818501810151868301820152016108e6565b81811115610914576000602083870101525b50601f01601f19169290920160200192915050565b6000602080830181845280855180835260408601915060408160051b870101925083870160005b8281101561097e57603f1988860301845261096c8583516108dc565b94509285019290850190600101610950565b5092979650505050505050565b60006020828403121561099d57600080fd5b81356001600160a01b03811681146109b457600080fd5b9392505050565b600080602083850312156109ce57600080fd5b823567ffffffffffffffff808211156109e657600080fd5b818501915085601f8301126109fa57600080fd5b813581811115610a0957600080fd5b866020828501011115610a1b57600080fd5b60209290920196919550909350505050565b6020815260006109b460208301846108dc565b600060208284031215610a5257600080fd5b5035919050565b600181811c90821680610a6d57607f821691505b60208210811415610a8e57634e487b7160e01b600052602260045260246000fd5b50919050565b600060208284031215610aa657600080fd5b815180151581146109b457600080fd5b600060208284031215610ac857600080fd5b5051919050565b8183823760009101908152919050565b634e487b7160e01b600052601160045260246000fd5b6000600019821415610b0957610b09610adf565b5060010190565b634e487b7160e01b600052603260045260246000fd5b600082821015610b3857610b38610adf565b500390565b6000816000190483118215151615610b5757610b57610adf565b500290565b600181815b80851115610b97578160001904821115610b7d57610b7d610adf565b80851615610b8a57918102915b93841c9390800290610b61565b509250929050565b600082610bae57506001610657565b81610bbb57506000610657565b8160018114610bd15760028114610bdb57610bf7565b6001915050610657565b60ff841115610bec57610bec610adf565b50506001821b610657565b5060208310610133831016604e8410600b8410161715610c1a575081810a610657565b610c248383610b5c565b8060001904821115610c3857610c38610adf565b029392505050565b60006109b48383610b9f565b634e487b7160e01b600052601260045260246000fd5b600082610c7157610c71610c4c565b500490565b600060ff831680610c8957610c89610c4c565b8060ff84160491505092915050565b600060ff821660ff84168160ff0481118215151615610c3857610c38610adf565b600060ff821660ff841680821015610cd357610cd3610adf565b90039392505050565b60008219821115610cef57610cef610adf565b500190565b600060ff821660ff84168060ff03821115610d1157610d11610adf565b01939250505056fea264697066735822122041935b2c3a7468ad5b4377760493c4d98e0dd6c76826d5bc01806682140a027264736f6c634300080b0033",
  "immutableReferences": {},
  "source": "// SPDX-License-Identifier: MIT\npragma solidity 0.8.11;\n\nimport \"./VoteToken.sol\";\nimport \"./VoterData.sol\";\n// interface VoterData {\n//     function isAddressInUse(string memory add) external view returns (bool);\n// }\n\nstruct Voter {\n    address add;\n    bool exists;\n}\n\nstruct Candidate {\n    string candidate;\n    uint256 count;\n    bool exists;\n}\n\ncontract Vote {\n    mapping(string => Candidate) private count;\n    string[] public candidateList; // Should be predefined list\n    address voterDataAddress;\n    address voterTokenAddress;\n    mapping(address => Voter) public votesDone;\n\n    constructor() public {\n        candidateList = [string(\"A\"), \"B\"];\n        voterDataAddress = 0x0e96fCe59948455B1961D75505Ea198E06BdD7eC;\n        voterTokenAddress = 0x8fab6F8d9B6819Cf1fD886A3F558A77604f9dD07;\n    }\n\n    function toAsciiString(address x) internal pure returns (string memory) {\n        bytes memory s = new bytes(42);\n        s[0] = \"0\";\n        s[1] = \"x\";\n        for (uint256 i = 0; i < 20; i++) {\n            bytes1 b = bytes1(uint8(uint256(uint160(x)) / (2**(8 * (19 - i)))));\n            bytes1 hi = bytes1(uint8(b) / 16);\n            bytes1 lo = bytes1(uint8(b) - 16 * uint8(hi));\n            s[2 * i + 2] = char(hi);\n            s[2 * i + 3] = char(lo);\n        }\n        return string(s);\n    }\n\n    function char(bytes1 b) internal pure returns (bytes1 c) {\n        if (uint8(b) < 10) return bytes1(uint8(b) + 0x30);\n        else return bytes1(uint8(b) + 0x57);\n    }\n\n    modifier validVoter(address add) {\n        require(\n            VoterData(voterDataAddress).isAddressInUse(toAsciiString(add)) ==\n                true,\n            \"Not a valid Address\"\n        );\n        _;\n    }\n\n    function castVote(string calldata candidate)\n        public\n        validVoter(msg.sender)\n        returns (string memory)\n    {\n        address voter = msg.sender;\n\n        uint256 checkIfVoted = IERC20(voterTokenAddress).balanceOf(voter);\n\n        require(checkIfVoted == 0, \"Already Voted.\");\n\n        if (!count[candidate].exists) {\n            count[candidate] = Candidate(candidate, 0, true);\n        }\n        count[candidate].count++;\n        bool transferred = IERC20(voterTokenAddress).transfer(voter, 1);\n        require(transferred == true, \"Transfer of token failed\");\n\n        return (\"success\");\n    }\n\n    function getCount(string calldata candidate) public view returns (uint256) {\n        uint256 cnt = count[candidate].count;\n        return cnt;\n    }\n\n    function getCandidates() public view returns (string[] memory) {\n        return candidateList;\n    }\n}\n",
  "sourcePath": "/home/sudonims/Documents/DAPP Voting/contracts/Vote.sol",
  "compiler": {
    "name": "solc",
    "version": "0.8.11+commit.d7f03943.Emscripten.clang"
  },
  "schemaVersion": "3.4.4",
  "updatedAt": "2022-01-28T18:27:53.138Z",
  "networkType": "ethereum",
  "devdoc": {
    "kind": "dev",
    "methods": {},
    "version": 1
  },
  "userdoc": {
    "kind": "user",
    "methods": {},
    "version": 1
  }
}