{
  "contractName": "Vote",
  "abi": [
    {
      "inputs": [],
      "stateMutability": "nonpayable",
      "type": "constructor"
    },
    {
      "inputs": [
        {
          "internalType": "uint256",
          "name": "",
          "type": "uint256"
        }
      ],
      "name": "candidateList",
      "outputs": [
        {
          "internalType": "string",
          "name": "",
          "type": "string"
        }
      ],
      "stateMutability": "view",
      "type": "function",
      "constant": true
    },
    {
      "inputs": [
        {
          "internalType": "address",
          "name": "",
          "type": "address"
        }
      ],
      "name": "votesDone",
      "outputs": [
        {
          "internalType": "address",
          "name": "add",
          "type": "address"
        },
        {
          "internalType": "bool",
          "name": "exists",
          "type": "bool"
        }
      ],
      "stateMutability": "view",
      "type": "function",
      "constant": true
    },
    {
      "inputs": [],
      "name": "getCandidates",
      "outputs": [
        {
          "internalType": "string[]",
          "name": "",
          "type": "string[]"
        }
      ],
      "stateMutability": "view",
      "type": "function",
      "constant": true
    },
    {
      "inputs": [
        {
          "internalType": "address",
          "name": "x",
          "type": "address"
        }
      ],
      "name": "toAsciiString",
      "outputs": [
        {
          "internalType": "string",
          "name": "",
          "type": "string"
        }
      ],
      "stateMutability": "view",
      "type": "function",
      "constant": true
    },
    {
      "inputs": [
        {
          "internalType": "string",
          "name": "candidate",
          "type": "string"
        }
      ],
      "name": "castVote",
      "outputs": [
        {
          "internalType": "string",
          "name": "",
          "type": "string"
        }
      ],
      "stateMutability": "nonpayable",
      "type": "function"
    },
    {
      "inputs": [
        {
          "internalType": "string",
          "name": "candidate",
          "type": "string"
        }
      ],
      "name": "getCount",
      "outputs": [
        {
          "internalType": "int256",
          "name": "",
          "type": "int256"
        }
      ],
      "stateMutability": "view",
      "type": "function",
      "constant": true
    }
  ],
  "bytecode": "0x60806040523480156200001157600080fd5b50604080516080810182526001818301818152604160f81b606084015282528251808401909352808352602160f91b6020848101919091528201929092526200005d91906002620000ac565b50600280546001600160a01b0319908116736b25ac500ebbf158a02f6544f8fc3f1330d4f5aa17909155600380549091167356c9f47bf43dcddc1cfa8f1e157f0f66e01c79e517905562000252565b828054828255906000526020600020908101928215620000fe579160200282015b82811115620000fe5782518051620000ed91849160209091019062000110565b5091602001919060010190620000cd565b506200010c9291506200019b565b5090565b8280546200011e9062000215565b90600052602060002090601f0160209004810192826200014257600085556200018d565b82601f106200015d57805160ff19168380011785556200018d565b828001600101855582156200018d579182015b828111156200018d57825182559160200191906001019062000170565b506200010c929150620001bc565b808211156200010c576000620001b28282620001d3565b506001016200019b565b5b808211156200010c5760008155600101620001bd565b508054620001e19062000215565b6000825580601f10620001f2575050565b601f016020900490600052602060002090810190620002129190620001bc565b50565b600181811c908216806200022a57607f821691505b602082108114156200024c57634e487b7160e01b600052602260045260246000fd5b50919050565b610d0e80620002626000396000f3fe608060405234801561001057600080fd5b50600436106100625760003560e01c806306a49fce146100675780630b1e71c2146100855780632c6e7598146100d95780639cc2d993146100f9578063b13c744b1461010c578063f001a5511461011f575b600080fd5b61006f610140565b60405161007c91906108e8565b60405180910390f35b6100ba61009336600461094a565b6004602052600090815260409020546001600160a01b03811690600160a01b900460ff1682565b604080516001600160a01b03909316835290151560208301520161007c565b6100ec6100e736600461094a565b610219565b60405161007c919061097a565b6100ec61010736600461098d565b6103cc565b6100ec61011a3660046109ff565b6106ef565b61013261012d36600461098d565b61079b565b60405190815260200161007c565b60606001805480602002602001604051908101604052809291908181526020016000905b8282101561021057838290600052602060002001805461018390610a18565b80601f01602080910402602001604051908101604052809291908181526020018280546101af90610a18565b80156101fc5780601f106101d1576101008083540402835291602001916101fc565b820191906000526020600020905b8154815290600101906020018083116101df57829003601f168201915b505050505081526020019060010190610164565b50505050905090565b5060408051602a8082526060828101909352339291600091602082018180368337019050509050600360fc1b8160008151811061025857610258610a53565b60200101906001600160f81b031916908160001a905350600f60fb1b8160018151811061028757610287610a53565b60200101906001600160f81b031916908160001a90535060005b60148110156103c55760006102b7826013610a7f565b6102c2906008610a96565b6102cd906002610b99565b6102e0906001600160a01b038716610bbb565b60f81b9050600060108260f81c6102f79190610bcf565b60f81b905060008160f81c601061030e9190610bf1565b8360f81c61031c9190610c12565b60f81b905061032a826107cc565b85610336866002610a96565b610341906002610c35565b8151811061035157610351610a53565b60200101906001600160f81b031916908160001a905350610371816107cc565b8561037d866002610a96565b610388906003610c35565b8151811061039857610398610a53565b60200101906001600160f81b031916908160001a90535050505080806103bd90610c4d565b9150506102a1565b5092915050565b60025460609033906000906001600160a01b031663206602f26103ee84610219565b6040518263ffffffff1660e01b815260040161040a919061097a565b602060405180830381865afa158015610427573d6000803e3d6000fd5b505050506040513d601f19601f8201168201806040525081019061044b9190610c68565b90506001811515146104955760405162461bcd60e51b815260206004820152600f60248201526e159bdd195c88139bdd0815985b1a59608a1b604482015260640160405180910390fd5b6001600160a01b038216600090815260046020526040902054600160a01b900460ff166106c2576040805180820182526001600160a01b03808516808352600160208085019182526000928352600490528482209351845491511515600160a01b026001600160a81b031990921693169290921791909117909155905161051f9087908790610c8a565b9081526040519081900360200190206002015460ff166105ea57604051806060016040528086868080601f0160208091040260200160405190810160405280939291908181526020018383808284376000920182905250938552505050602082018190526001604092830152905161059a9088908890610c8a565b908152602001604051809103902060008201518160000190805190602001906105c4929190610802565b50602082015160018201556040909101516002909101805460ff19169115159190911790555b600085856040516105fc929190610c8a565b908152604051908190036020019020600101805490600061061c83610c9a565b909155505060035460405163a9059cbb60e01b81526001600160a01b038481166004830152600160248301529091169063a9059cbb906044016020604051808303816000875af1158015610674573d6000803e3d6000fd5b505050506040513d601f19601f820116820180604052508101906106989190610c68565b50604051806040016040528060078152602001667375636365737360c81b815250925050506106e9565b60405180604001604052806009815260200168766f746520646f6e6560b81b815250925050505b92915050565b600181815481106106ff57600080fd5b90600052602060002001600091509050805461071a90610a18565b80601f016020809104026020016040519081016040528092919081815260200182805461074690610a18565b80156107935780601f1061076857610100808354040283529160200191610793565b820191906000526020600020905b81548152906001019060200180831161077657829003601f168201915b505050505081565b600080600084846040516107b0929190610c8a565b9081526040519081900360200190206001015491505092915050565b6000600a60f883901c10156107f3576107ea60f883901c6030610cb3565b60f81b92915050565b6107ea60f883901c6057610cb3565b82805461080e90610a18565b90600052602060002090601f0160209004810192826108305760008555610876565b82601f1061084957805160ff1916838001178555610876565b82800160010185558215610876579182015b8281111561087657825182559160200191906001019061085b565b50610882929150610886565b5090565b5b808211156108825760008155600101610887565b6000815180845260005b818110156108c1576020818501810151868301820152016108a5565b818111156108d3576000602083870101525b50601f01601f19169290920160200192915050565b6000602080830181845280855180835260408601915060408160051b870101925083870160005b8281101561093d57603f1988860301845261092b85835161089b565b9450928501929085019060010161090f565b5092979650505050505050565b60006020828403121561095c57600080fd5b81356001600160a01b038116811461097357600080fd5b9392505050565b602081526000610973602083018461089b565b600080602083850312156109a057600080fd5b823567ffffffffffffffff808211156109b857600080fd5b818501915085601f8301126109cc57600080fd5b8135818111156109db57600080fd5b8660208285010111156109ed57600080fd5b60209290920196919550909350505050565b600060208284031215610a1157600080fd5b5035919050565b600181811c90821680610a2c57607f821691505b60208210811415610a4d57634e487b7160e01b600052602260045260246000fd5b50919050565b634e487b7160e01b600052603260045260246000fd5b634e487b7160e01b600052601160045260246000fd5b600082821015610a9157610a91610a69565b500390565b6000816000190483118215151615610ab057610ab0610a69565b500290565b600181815b80851115610af0578160001904821115610ad657610ad6610a69565b80851615610ae357918102915b93841c9390800290610aba565b509250929050565b600082610b07575060016106e9565b81610b14575060006106e9565b8160018114610b2a5760028114610b3457610b50565b60019150506106e9565b60ff841115610b4557610b45610a69565b50506001821b6106e9565b5060208310610133831016604e8410600b8410161715610b73575081810a6106e9565b610b7d8383610ab5565b8060001904821115610b9157610b91610a69565b029392505050565b60006109738383610af8565b634e487b7160e01b600052601260045260246000fd5b600082610bca57610bca610ba5565b500490565b600060ff831680610be257610be2610ba5565b8060ff84160491505092915050565b600060ff821660ff84168160ff0481118215151615610b9157610b91610a69565b600060ff821660ff841680821015610c2c57610c2c610a69565b90039392505050565b60008219821115610c4857610c48610a69565b500190565b6000600019821415610c6157610c61610a69565b5060010190565b600060208284031215610c7a57600080fd5b8151801515811461097357600080fd5b8183823760009101908152919050565b60006001600160ff1b03821415610c6157610c61610a69565b600060ff821660ff84168060ff03821115610cd057610cd0610a69565b01939250505056fea2646970667358221220f69969f74dfd0f7f2b898275c96bc7284e93d038422235e143acb1dde763b50564736f6c634300080b0033",
  "immutableReferences": {},
  "source": "// SPDX-License-Identifier: MIT\npragma solidity 0.8.11;\n\nimport \"./VoteToken.sol\";\n\ninterface VoterData {\n    function isAddressInUse(string memory add) external view returns (bool);\n}\n\nstruct Voter {\n    address add;\n    bool exists;\n}\n\nstruct Candidate {\n    string candidate;\n    int256 count;\n    bool exists;\n}\n\ncontract Vote {\n    mapping(string => Candidate) private count;\n    string[] public candidateList; // Should be predefined list\n    address voterDataAddress;\n    address voterTokenAddress;\n    mapping(address => Voter) public votesDone;\n\n    constructor() public {\n        candidateList = [string(\"A\"), \"B\"];\n        voterDataAddress = 0x6b25Ac500EBBf158A02f6544f8fC3f1330D4F5aa;\n        voterTokenAddress = 0x56C9F47BF43DCddc1CfA8f1e157f0f66E01c79E5;\n    }\n\n    function getCandidates() public view returns (string[] memory) {\n        return candidateList;\n    }\n\n    function toAsciiString(address x) public view returns (string memory) {\n        x = msg.sender;\n        bytes memory s = new bytes(42);\n        s[0] = \"0\";\n        s[1] = \"x\";\n        for (uint256 i = 0; i < 20; i++) {\n            bytes1 b = bytes1(uint8(uint256(uint160(x)) / (2**(8 * (19 - i)))));\n            bytes1 hi = bytes1(uint8(b) / 16);\n            bytes1 lo = bytes1(uint8(b) - 16 * uint8(hi));\n            s[2 * i + 2] = char(hi);\n            s[2 * i + 3] = char(lo);\n        }\n        return string(s);\n    }\n\n    function char(bytes1 b) internal pure returns (bytes1 c) {\n        if (uint8(b) < 10) return bytes1(uint8(b) + 0x30);\n        else return bytes1(uint8(b) + 0x57);\n    }\n\n    // modifier validVoter(string memory add) {\n    //     require( // string memory a = \"0x769043945515e7A25e8B9A4DD6a93f637B6b5F6e\";\n    //         keccak256(bytes(add)) == keccak256(bytes(a)),\n    //         \"Not a valid Address\"\n    //     );\n    //     _;\n    // }\n\n    function castVote(string calldata candidate)\n        public\n        returns (string memory)\n    {\n        address voter = msg.sender;\n\n        bool isValid = VoterData(voterDataAddress).isAddressInUse(\n            toAsciiString(voter)\n        );\n\n        require(isValid == true, \"Voter Not Valid\");\n\n        if (!votesDone[voter].exists) {\n            votesDone[voter] = Voter(voter, true);\n\n            if (!count[candidate].exists) {\n                count[candidate] = Candidate(candidate, 0, true);\n            }\n            count[candidate].count++;\n            IERC20(voterTokenAddress).transfer(voter, 1);\n            return (\"success\");\n        }\n        return (\"vote done\");\n    }\n\n    function getCount(string calldata candidate)\n        external\n        view\n        returns (int256)\n    {\n        int256 cnt = count[candidate].count;\n        return cnt;\n    }\n}\n",
  "sourcePath": "/home/sudonims/Documents/DAPP Voting/contracts/Vote.sol",
  "compiler": {
    "name": "solc",
    "version": "0.8.11+commit.d7f03943.Emscripten.clang"
  },
  "schemaVersion": "3.4.4",
  "updatedAt": "2022-01-27T14:06:14.714Z",
  "networkType": "ethereum",
  "devdoc": {
    "kind": "dev",
    "methods": {},
    "version": 1
  },
  "userdoc": {
    "kind": "user",
    "methods": {},
    "version": 1
  }
}