{
  "contractName": "VoterData",
  "abi": [
    {
      "inputs": [],
      "stateMutability": "nonpayable",
      "type": "constructor"
    },
    {
      "inputs": [
        {
          "internalType": "string",
          "name": "",
          "type": "string"
        }
      ],
      "name": "addressInUse",
      "outputs": [
        {
          "internalType": "bool",
          "name": "",
          "type": "bool"
        }
      ],
      "stateMutability": "view",
      "type": "function",
      "constant": true
    },
    {
      "inputs": [
        {
          "internalType": "string",
          "name": "",
          "type": "string"
        }
      ],
      "name": "voterID",
      "outputs": [
        {
          "internalType": "bool",
          "name": "",
          "type": "bool"
        }
      ],
      "stateMutability": "view",
      "type": "function",
      "constant": true
    },
    {
      "inputs": [
        {
          "internalType": "string",
          "name": "id",
          "type": "string"
        },
        {
          "internalType": "string",
          "name": "add",
          "type": "string"
        }
      ],
      "name": "registerNewVoter",
      "outputs": [
        {
          "internalType": "string",
          "name": "",
          "type": "string"
        }
      ],
      "stateMutability": "nonpayable",
      "type": "function"
    },
    {
      "inputs": [
        {
          "internalType": "string",
          "name": "add",
          "type": "string"
        }
      ],
      "name": "isAddressInUse",
      "outputs": [
        {
          "internalType": "bool",
          "name": "",
          "type": "bool"
        }
      ],
      "stateMutability": "view",
      "type": "function",
      "constant": true
    }
  ],
  "bytecode": "0x608060405234801561001057600080fd5b506104a0806100206000396000f3fe608060405234801561001057600080fd5b506004361061004c5760003560e01c80630edf875514610051578063206602f214610094578063d3ce8fcd146100a7578063f33b66fa146100c7575b600080fd5b61007f61005f3660046102c8565b805160208183018101805160018252928201919093012091525460ff1681565b60405190151581526020015b60405180910390f35b61007f6100a2366004610305565b6100f5565b6100ba6100b5366004610377565b610133565b60405161008b919061040b565b61007f6100d53660046102c8565b805160208183018101805160008252928201919093012091525460ff1681565b60006001838360405161010992919061043e565b9081526040519081900360200190205460ff1661012757600061012a565b60015b90505b92915050565b6060600083604051610145919061044e565b9081526040519081900360200190205460ff166101eb57600160008460405161016e919061044e565b908152604051908190036020018120805492151560ff1990931692909217909155600190819061019f90859061044e565b908152602001604051809103902060006101000a81548160ff021916908315150217905550604051806040016040528060078152602001667375636365737360c81b815250905061012d565b5060408051808201909152601881527f566f74657220616c726561647920726567697374657265640000000000000000602082015261012d565b634e487b7160e01b600052604160045260246000fd5b600082601f83011261024c57600080fd5b813567ffffffffffffffff8082111561026757610267610225565b604051601f8301601f19908116603f0116810190828211818310171561028f5761028f610225565b816040528381528660208588010111156102a857600080fd5b836020870160208301376000602085830101528094505050505092915050565b6000602082840312156102da57600080fd5b813567ffffffffffffffff8111156102f157600080fd5b6102fd8482850161023b565b949350505050565b6000806020838503121561031857600080fd5b823567ffffffffffffffff8082111561033057600080fd5b818501915085601f83011261034457600080fd5b81358181111561035357600080fd5b86602082850101111561036557600080fd5b60209290920196919550909350505050565b6000806040838503121561038a57600080fd5b823567ffffffffffffffff808211156103a257600080fd5b6103ae8683870161023b565b935060208501359150808211156103c457600080fd5b506103d18582860161023b565b9150509250929050565b60005b838110156103f65781810151838201526020016103de565b83811115610405576000848401525b50505050565b602081526000825180602084015261042a8160408501602087016103db565b601f01601f19169190910160400192915050565b8183823760009101908152919050565b600082516104608184602087016103db565b919091019291505056fea2646970667358221220f384f5022ec8c72073f6c8a15b97ad5149148526eb1170b808628fa9735a9ff964736f6c634300080b0033",
  "immutableReferences": {},
  "source": "// SPDX-License-Identifier: MIT\npragma solidity 0.8.11;\n\ncontract VoterData {\n    mapping(string => bool) public voterID;\n    mapping(string => bool) public addressInUse;\n\n    constructor() public {}\n\n    function registerNewVoter(string memory id, string memory add)\n        public\n        returns (string memory)\n    {\n        if (!voterID[id]) {\n            voterID[id] = true;\n            addressInUse[add] = true;\n            return (\"success\");\n        } else {\n            return (\"Voter already registered\");\n        }\n    }\n\n    function isAddressInUse(string calldata add) public view returns (bool) {\n        return addressInUse[add] ? true : false;\n    }\n}\n",
  "sourcePath": "/home/sudonims/Documents/DAPP Voting/contracts/VoterData.sol",
  "compiler": {
    "name": "solc",
    "version": "0.8.11+commit.d7f03943.Emscripten.clang"
  },
  "schemaVersion": "3.4.4",
  "updatedAt": "2022-01-06T19:39:00.887Z",
  "networkType": "ethereum",
  "devdoc": {
    "kind": "dev",
    "methods": {},
    "version": 1
  },
  "userdoc": {
    "kind": "user",
    "methods": {},
    "version": 1
  }
}